:020000040800F2
:10000000208E002021030008E12A0008E5290008CD
:10001000DD2A0008A50500084D4800080000000082
:10002000000000000000000000000000690200085D
:10003000C320000800000000BD020008453500088C
:100040003B0300083B0300083B0300083B03000898
:100050003B0300083B0300083B0300083B03000888
:100060003B0300083B0300083B0300083B03000878
:100070003B030008CD1C00083B0300083B030008BD
:10008000311D00083B0300083B0300081908000865
:10009000A90500083B0300083B0300083B030008D8
:1000A0003B0300083B0300083B0300083B03000838
:1000B0003B0300083B0300083B0300083B03000828
:1000C0003B0300083B0300083B0300083B03000818
:1000D0003B0300083B0300080D3C00088D4100086D
:1000E0003B0300083B0300083B0300083B030008F8
:1000F0003B0300083B0300083B0300083B030008E8
:100100003B0300083B0300083B0300083B030008D7
:1001100035390008713A00083B0300083B0300082A
:100120003B0300083B0300083B0300083B030008B7
:100130003B0300083B0300083B0300083B030008A7
:10014000350800083B0300083B0300083B03000898
:100150003B0300083B0300083B0300083B03000887
:100160003B0300083B0300083B0300083B03000877
:100170003B0300083B0300083B0300083B03000867
:100180003B0300083B03000800F002F800F05CF8B5
:100190000AA090E8000C82448344AAF10107DA45E2
:1001A00001D100F051F8AFF2090EBAE80F0013F0D8
:1001B000010F18BFFB1A43F001031847187600001F
:1001C000387600000A444FF0000C10F8013B13F0A1
:1001D000070408BF10F8014B1D1108BF10F8015BA0
:1001E000641E05D010F8016B641E01F8016BF9D193
:1001F00013F0080F1EBF10F8014BAD1C0C1B09D1EA
:100200006D1E58BF01F801CBFAD505E014F8016B5B
:1002100001F8016B6D1EF9D59142D6D370470000ED
:100220000023002400250026103A28BF78C1FBD8FF
:10023000520728BF30C148BF0B6070471FB507F099
:10024000BEFA1FBD10B510BD00F05BF91146FFF7F7
:10025000F5FF05F0C3F800F079F903B4FFF7F2FFFA
:1002600003BC00F07DF900002A4B19680868B0E86B
:10027000F04F80F30988BFF36F8F4FF0000080F3D9
:10028000118870470000000006480068006880F38D
:10029000088862B661B6BFF34F8FBFF36F8F00DF80
:1002A00000BF00BF08ED00E0DFF80C00016841F47A
:1002B00070010160704700BF88ED00E0EFF3098036
:1002C000BFF36F8F134B1A681EF0100F08BF20ED9D
:1002D000108A20E9F04F106008B44FF0500080F30E
:1002E0001188BFF34F8FBFF36F8F06F0D1F84FF037
:1002F000000080F3118808BC19680868B0E8F04F66
:100300001EF0100F08BFB0EC108A80F30988BFF30D
:100310006F8F704758030020EFF30580704700008F
:100320000948804709480047FEE7FEE7FEE7FEE789
:10033000FEE7FEE7FEE7FEE7FEE7FEE704480549C5
:10034000054A064B70470000553500088901000832
:10035000207E0020208E0020208600202086002085
:10036000032A40F2308010F0030C00F0158011F8E1
:10037000013BBCF1020F624498BF11F801CB00F8B9
:10038000013B38BF11F8013BA2F1040298BF00F80D
:1003900001CB38BF00F8013B11F0030300F02580CA
:1003A000083AC0F0088051F8043B083A51F804CBF1
:1003B000A0E80810F5E7121D5CBF51F8043B40F8B7
:1003C000043BAFF30080D20724BF11F8013B11F8C2
:1003D00001CB48BF11F8012B24BF00F8013B00F806
:1003E00001CB48BF00F8012B704710B5203AC0F090
:1003F0000B80B1E81850203AA0E81850B1E8185026
:10040000A0E81850BFF4F5AF5FEA027C24BFB1E862
:100410001850A0E8185044BF18C918C0BDE81040D3
:100420005FEA827C24BF51F8043B40F8043B08BFDC
:100430007047D20728BF31F8023B48BF11F8012BA3
:1004400028BF20F8023B48BF00F8012B704702F09C
:10045000FF0343EA032242EA024200F02CB84FF0C5
:10046000000200B5134694469646203922BFA0E804
:100470000C50A0E80C50B1F12001BFF4F7AF090710
:1004800028BFA0E80C5048BF0CC05DF804EB890001
:1004900028BF40F8042B08BF704748BF20F8022B44
:1004A00011F0804F18BF00F8012B7047704770475C
:1004B00070474FF000020429C0F0128010F0030CC6
:1004C0003FF4CFAFCCF1040CBCF1020F18BF00F821
:1004D000012BA8BF20F8022BA1EB0C01FFF7C1BF35
:1004E0005FEAC17C24BF00F8012B00F8012B48BF54
:1004F00000F8012B7047000000487047BC7D0020C9
:1005000070477546FFF7F8FFAE460500694653464B
:1005100020F00700854618B020B5FFF70FFFBDE8B3
:1005200020404FF000064FF000074FF000084FF05A
:10053000000B21F00701AC46ACE8C009ACE8C009EB
:10054000ACE8C009ACE8C0098D46704710B5044658
:10055000AFF300802046BDE81040FFF77EBE0000EC
:1005600001491820ABBEFEE7260002001CB50121A0
:10057000102002F0B9FE0420009001208DF8040044
:1005800000208DF8060003208DF805006946044818
:1005900001F0D6FF0421024802F03DF81CBD000026
:1005A0000010024000BFFEE710B502218F4800F0A6
:1005B0007BFC00287ED002218C4800F0F9FA8C4A9E
:1005C00000218A4800F093FD89480068B0F5B37FA8
:1005D00004D0A0F20520002848D148E085480068F2
:1005E000401C844908608248C07A8349087080486A
:1005F000007B48707E48407B88707D48807BC87057
:100600007B48C07B08717A48007C48717848407C00
:1006100088717748807CC87108464078097840EA3C
:10062000012000EE100AB8EEC00A744880ED080AF6
:100630007148C0787049897840EA012070490860A3
:100640006D4840796C49097940EA012000B26D4952
:1006500008876948C0796849897940EA012000EE35
:10066000100AB8EEC00A654880ED030ABCE066488F
:1006700090F82800401C644981F828005C48C07A42
:10068000624908705A48007B48705948407B88701E
:100690005748807BC8705648C07B08715448007C1E
:1006A00048715348407C88715148807CC8715648D5
:1006B000418D00E099E0818554484078534909789C
:1006C00040EA0121504841855048C0784F49897817
:1006D00040EA012001B24C4801864C4840794B4920
:1006E000097940EA012001B247484186418DC16342
:1006F000418D808D081AB0F5805F05DD4248006CA1
:10070000401E414908640BE03F48418D808D081A26
:1007100010F5805F04DA3C48006C401C3A490864DC
:100720003948C16B006C41F6FF7202FB001136487C
:10073000C16390F84A0068B93348408D50B13248DF
:10074000408D01B23048C185418DA0F84C10012187
:1007500080F84A102C48408D01B22B48B0F84C006C
:1007600000B2091A28484164406C18B90021264893
:10077000416418E02448406C41F65831884207DD56
:100780002148406CA0F5F850FF381F4948640AE042
:100790001D48406C1E49884205DA1B48406C1D49C3
:1007A000091A194841641848418DA0F84C10C18DB0
:1007B000B0F84400084401B21348C185B0F92E00D6
:1007C000B0F5804F03DB00210F48C18508E00E48DB
:1007D000B0F92E00002803DA43F6FF710A48C185FC
:1007E00000210948416400BF00BF10BD0064004003
:1007F000640B0020DC000020EC000020080B00202F
:10080000E000002060050020B4050020F400002076
:10081000A8E4FFFF01E0FFFF10B50121044800F04C
:1008200043FB18B10121024800F0C2F910BD0000DD
:100830000064004010B50221D14800F035FB0028CB
:100840007DD00221CE4800F0B3F9CE4A0021CC4839
:1008500000F04DFCCB48006840F20222811A904221
:100860006ED007DCB0F5C47F09D0A0F201200028CB
:100870003DD13DE004297DD00529F9D12AE1C248C6
:100880000068401CC0490860BE48C07ABF49087073
:10089000BC48007B4870BB48407B8870B948807B6F
:1008A000C870B848C07B0871B648007C4871B5482C
:1008B000407C8871B348807CC871084640780978CC
:1008C00040EA012000B2B2494880B048C078AF4940
:1008D000897840EA012000B2AD490880AB484079F0
:1008E000AA49097940EA012000B2A949888045E176
:1008F000A8480078401CA7490870A248C07AA649B9
:100900000870A048007B48709E48407B88709D48D6
:10091000807BC8709B48C07B08719A48007C4871F6
:100920009848407C88719748807CC8719948408875
:1009300098498880984840789749097801E01EE1F5
:1009400036E040EA0120934948809348C0789249B4
:10095000897840EA012000B28E49C8800846408864
:100960008860084640888988401AB0F5805F07DDB6
:10097000884800E072E0C068401E8649C8600CE00C
:100980008448408883498988401A10F5805F04DADA
:100990008048C068401C7F49C8607E4880687D49A7
:1009A000C96841F6FF7202FB01007A498860E5E000
:1009B0007848007F401C774908777248C07A7749A9
:1009C00008707048007B48706E48407B88706D48A6
:1009D000807BC8706B48C07B08716A48007C487196
:1009E0006848407C88716748807CC8716948C18BC1
:1009F00001846A4840786949097840EA01216548DC
:100A0000C1836648C0786549897840EA012001B20F
:100A100060484184C18B4162C18B008C081AB0F5DB
:100A2000805F05DD5B48806A401E5A4988620BE0A2
:100A30005848C18B008C081A10F5805F04DA5548BD
:100A4000806A401C534988625248416A806A41F674
:100A5000FF7202FB00114F4841628FE0504890F84E
:100A60002800401C4E4981F828004648C07A4D496C
:100A700008704448007B48704248407B8870414879
:100A8000807BC8703F48C07B08713E48007C48713D
:100A90003C48407C88713B48807CC871084640785F
:100AA000097840EA01213E4841853E48C0783D49E9
:100AB000897840EA012001B2394881863948407975
:100AC0003849097940EA012001B235480186418D53
:100AD000C16353E03448007C401C33490874294802
:100AE000C07A324908702748007B48702548407B0F
:100AF00088702448807BC8702248C07B08712148D8
:100B0000007C48711F48407C88711E48807CC871F9
:100B10002548418A8182254840782449097840EA5D
:100B20000121214841822148C0782049897840EA42
:100B3000012001B21C48C182418A808A081AB0F59E
:100B40007A6F05DD1848C069401E1749C8610BE07F
:100B50001548418A808A081A10F57A6F04DA12481B
:100B6000C069401C1049C8610F48418AC06941F6FC
:100B7000FF7202FB00110C48816100BF00BF10BD75
:100B800000680040C00B0020280100200001002068
:100B9000E80A002060050020180100202001002044
:100BA000CC06002008010020E407002010010020EE
:100BB000B1F5007F3AD00FDC202928D006DC0129CE
:100BC0001CD004291DD0082940D11DE0402921D086
:100BD000B1F5807F3AD126E0B1F5004F31D006DC87
:100BE000B1F5806F25D0B1F5006F2FD124E0B1F5BC
:100BF000803F12D0B1F5003F28D111E0154A826044
:100C000025E00822C26022E01022C2601FE0082214
:100C100002611CE01022026119E00822426016E025
:100C20001022426013E00422426010E0042242607D
:100C30000DE0042242600AE0002282610422426048
:100C400005E0002282610422426000E000BF00BF94
:100C5000704700000101010010B504460B488442B2
:100C600009D10121480602F05FFB00214FF000701E
:100C700002F05AFB08E00121880602F055FB002132
:100C80004FF0806002F050FB10BD00000064004097
:100C900010B50021837A012202FA03F13D4A12685D
:100CA00042F001023B4B1A603A4A1C3212688A43F6
:100CB000384B1C331A60027BCAB9364A0C321268B0
:100CC0008A43344B0C331A604288C38842EA034398
:100CD000304A4032847A42F834300288838842EACB
:100CE00003432C4A4032847A02EBC4025360027BF5
:100CF000012A19D1274A0C3212680A43254B0C33BA
:100D00001A604288038842EA0343224A4032847AC6
:100D100042F83430C288838842EA03431D4A403295
:100D2000847A02EBC4025360C27A3AB9194A121D9E
:100D300012688A43174B1B1D1A6006E0154A121DE4
:100D400012680A43134B1B1D1A60028932B9114AFB
:100D5000143212688A430F4B14331A600289012A35
:100D600006D10C4A143212680A430A4B14331A6033
:100D7000427B012A06D1074A1C3212680A43054BFE
:100D80001C331A60034A126822F00102014B1A60F8
:100D900010BD00000066004000B58BB001210220AC
:100DA00002F0A2FA0121480602F0AEFA0922082157
:100DB0003B4801F00DFC09221146394801F008FCBE
:100DC0004FF44070029002208DF80C0002A93448C4
:100DD00001F0B6FB14208DF8040002208DF8050008
:100DE00001208DF806008DF8070001A801F07AFEB9
:100DF00013208DF8040001208DF805008DF8060001
:100E00008DF8070001A801F06DFE2648FFF724FFCA
:100E100008A800F061FA00208DF826008DF8270060
:100E20008DF828008DF829008DF82A0001208DF812
:100E30002B0000208DF822008DF8230008208DF86B
:100E4000240003208DF82500ADF8200008A91548DE
:100E500000F0C3F800208DF81A008DF81B00012067
:100E60008DF81C000020ADF81000ADF81200ADF8B0
:100E70001400ADF81600ADF8180001208DF81D0023
:100E800004A8FFF705FF01220221064800F09CF8A4
:100E900001221146034800F097F80BB000BD000096
:100EA000000402400064004070B504460D46002670
:100EB00060692840002871D0B5F5807F5CD010DCD7
:100EC000082D35D006DC012D20D0022D24D0042D94
:100ED00072D127E0102D31D0202D35D0402D6BD18F
:100EE00038E0B5F5004F60D009DCB5F5007F49D09A
:100EF000B5F5806F4CD0B5F5006F5DD14FE0B5F51D
:100F0000803F2DD0B5F5003F56D12FE0A0682D4988
:100F100000F085FA064651E0E068032100F07FFA10
:100F200006464BE0E068082100F079FA064645E005
:100F3000E068102100F073FA06463FE020690321C3
:100F400000F06DFA064639E02069082100F067FAE2
:100F5000064633E02069102100F061FA06462DE0D4
:100F60006068082100F05BFA064627E060681021FF
:100F700000F055FA064621E0A069012100F04FFA81
:100F800006461BE0A069022100F049FA064615E07A
:100F9000A069042100F043FA06460FE00FE0A069C3
:100FA000702100F03CFA064608E06068042100F079
:100FB00036FA064602E0FFE7002600BF00E0002602
:100FC000304670BD010101001AB143690B43436112
:100FD00002E043698B434361704730B5024600200D
:100FE0000023146824F002041460146844F001041F
:100FF000146000E05B1C546804F001041CB94FF657
:10100000FF74A342F6D1546804F001040CB9002027
:101010006CE08C79012C04D1146844F080041460D5
:1010200003E0146824F080041460CC79012C04D10E
:10103000146844F04004146003E0146824F0400491
:1010400014600C7A012C04D1146844F0200414605C
:1010500003E0146824F0200414604C7A012C04D1BD
:10106000146844F01004146003E0146824F01004C1
:1010700014608C7A012C04D1146844F008041460C4
:1010800003E0146824F008041460CC7A012C04D125
:10109000146844F00404146003E0146824F00404A9
:1010A00014608C78A407CD7844EA05640D7944EA8D
:1010B00005444D7944EA05540D886D1E2C43D461D6
:1010C000146824F001041460002300E05B1C5468E1
:1010D00004F001041CB14FF6FF74A342F6D154682A
:1010E00004F001040CB1002000E0012030BD10B577
:1010F00000F5D87303EB01131B6803F004031372AC
:10110000137A53B900F5D87303EB01131B6840F24F
:10111000FF7404EA5353136009E000F5D87303EB3E
:1011200001131B686FF0604404EAD303536000F5B9
:10113000D87303EB01131B6803F00203537200F52D
:10114000D87303EB01135B6803F00F03937200F590
:10115000D87303EB01135B681B0AD37400F5D873D3
:1011600003EB01139B68D37200F5D87303EB0113F3
:101170009B681C0A147300F5D87303EB01139B687A
:101180001C0C547300F5D87303EB01139B681B0E02
:10119000937300F5D87303EB0113DB68D37300F589
:1011A000D87303EB0113DB681C0A147400F5D873C1
:1011B00003EB0113DB681C0C547400F5D87303EBCC
:1011C0000113DB681B0E937421B9C36843F020033D
:1011D000C36003E0036943F02003036110BD000016
:1011E00000B58BB00121022002F07EF801218806B3
:1011F00002F08AF802208DF80C0000208DF80E0015
:101200006020029001208DF80F0003208DF80D0062
:1012100002A92F4801F094F9092205212C4801F078
:10122000D7F9092206212A4801F0D2F901208DF8C8
:1012300027008DF8280008208DF8240003208DF861
:10124000250000208DF822008DF829000320ADF83C
:10125000200000208DF82A008DF823008DF826004C
:101260008DF82B0008A91B48FFF7B7FE01208DF869
:101270001D000020ADF81800ADF81000ADF8120008
:10128000ADF81400ADF816008DF81B000E208DF897
:101290001A0001208DF81C0004A8FFF7F9FC0122B8
:1012A00002210C48FFF790FE4FF4407001F056FC0D
:1012B00040208DF8040001208DF807008DF805000E
:1012C00000208DF8060001A801F00CFC0BB000BD59
:1012D000000402400068004000218171C171017268
:1012E00041728172C1728170C1700321017102214A
:1012F000417101210180704710B5024600209368BA
:1013000003F08063B3F1806F00D110E0936803F0C5
:101310000063B3F1006F01D1012008E0936803F08E
:101320008053B3F1805F01D1022000E00420042843
:1013300074D002F5C07303EB00131B6803F00104C3
:1013400002F5C07303EB00131C600B7A7BB94B7A78
:101350000C8843EA445302F5C07404EB001424687B
:10136000234302F5C07404EB0014236010E00B7AF1
:101370004C6843EAC4034C7A234302F5C07404EB7F
:1013800000142468234302F5C07404EB00142360A6
:101390008B7A03F00F038B7202F5C07303EB00131B
:1013A0005B6823F00F0402F5C07303EB00135C606D
:1013B00002F5C07303EB00135B688C7A234302F5DC
:1013C000C07404EB001463608B7B1C064B7B44EA07
:1013D00003440B7B44EA0323CC7A234302F5C07415
:1013E00004EB0014A3608B7C1C064B7C44EA034492
:1013F0000B7C44EA0323CC7B234302F5C07404EB4B
:101400000014E36002F5C07303EB00131B6843F0A4
:10141000010402F5C07303EB00131C6010BD02460B
:10142000002002EA01030BB1012000E00020704718
:101430002DE9F04104460D4616461F46012010498D
:10144000087040F2FF10486000210D48017341739D
:1014500008218173210AC1730474290A41748574B7
:10146000310AC1740675390A4175877500230A224D
:1014700001460448006805F06DFABDE8F0810000FF
:10148000780B0020FC0000202DE9F04104460D46B9
:1014900016461F4602201049087040F2FF104860AF
:1014A00000210D480173417308218173210AC17322
:1014B0000474290A41748574310AC1740675390AA5
:1014C0004175877500230A2201460448006805F02B
:1014D00041FABDE8F0810000D40B0020FC000020A0
:1014E0009FED121A124A82ED001A124AD2ED001A2A
:1014F00001EE100AB8EEC11A41EE001AC2ED001A50
:1015000001EE101AB8EEC11A21EE201ADFED0A1A08
:1015100021EE211ADFED091A81EE212A084A92ED07
:10152000001A31EE421A82ED001A704700000000E6
:10153000E0020020B40500200000B44300F8FF459D
:10154000CC06002010B52DED028BF0EE408AB0EEF7
:10155000608A05F073FD04466F4890ED040A80ED43
:10156000050AB1EE680A30EE080A80ED040A90ED33
:10157000040AB5EEC00AF1EE10FA02DD90ED040A9D
:1015800004E0654890ED040AB1EE400ADFED630A1D
:10159000B4EEE00AF1EE10FA09D25F4890ED070AC6
:1015A000D0ED040A30EE200A80ED070A04E09FED3A
:1015B0005C0A594880ED070A574890ED070ADFEDAD
:1015C000590AB4EEE00AF1EE10FA02DD9FED550A79
:1015D00002E0514890ED070A4F4880ED070A90ED70
:1015E000070ADFED510AB4EEE00AF1EE10FA02D27A
:1015F0009FED4D0A02E0484890ED070A464880ED0D
:10160000070A90ED040AD0ED000A20EE200AD0ED82
:10161000070A90ED011A00EE810AD0ED040A90ED60
:10162000051A70EEC10A90ED021A00EE810A80EDF3
:10163000060A3E4890ED040A80ED050A364890ED12
:10164000060A3B48D0ED000AF1EE600A30EE200AAF
:10165000364880ED040A374890ED000A3448D0ED52
:10166000000A30EE600A3148D0ED020A60EE200A2E
:10167000006A201A00EE100AB8EE401A80EE810AC5
:101680002A48D0ED040A90ED001A00EE810A2A489B
:10169000D0ED000A78EE600A244890ED031A00EEBF
:1016A000810A80ED060A90ED060ADFED240AB4EE09
:1016B000E00AF1EE10FA02DD9FED200A02E01B487D
:1016C00090ED060A194880ED060A90ED060ADFED56
:1016D0001C0AB4EEE00AF1EE10FA02D29FED180AED
:1016E00002E0124890ED060A104880ED060A124802
:1016F00080ED008A0E4890ED000A0E4880ED000A49
:101700000A48046290ED060ABDEEC00A10EE100A07
:1017100000B2BDEC028B10BDF8030020000016449F
:10172000000000000000FA440000FAC4D4030020C6
:101730006801002074010020FC02002000C05A460D
:1017400000C05AC610B52DED068BF0EE408AB0EE03
:10175000608A844890ED040A80ED050AB1EE480ADB
:1017600030EE280A80ED040A90ED040AB5EEC00AB6
:10177000F1EE10FA02DD90ED040A04E0794890EDF4
:10178000040AB1EE400AF2EE040AB4EEE00AF1EE09
:1017900010FA09D2734890ED070AD0ED040A30EE32
:1017A000200A80ED070A04E09FED6F0A6D4880ED86
:1017B000070A6C4890ED040AD0ED000A20EE200ADA
:1017C000D0ED070A90ED011A00EE810AD0ED040A6F
:1017D00090ED051A70EEC10A90ED021A00EE810A32
:1017E00080ED060A614890ED040A80ED050A5D4827
:1017F00090ED060AB1EE400A5D48D0ED000A30EEE9
:10180000200A5A4880ED040A90ED040AD0ED000A3F
:1018100020EE200A5748D0ED000A554890ED001AF6
:1018200070EEC10A514890ED021A00EE810A52484A
:10183000D0ED000A78EE600A4C4890ED031A00EEF5
:10184000810A80ED060A4D480078012850D14748AA
:1018500090ED060A10EE101A084605F03FFF41EC25
:101860001A0B9FED470B53EC102B05F001FF02D232
:101870009FED430B09E03D4890ED060A10EE101A6B
:10188000084605F02BFF41EC100BB0EE409AF0EE4D
:10189000609A51EC190B05F01DFE34498861084629
:1018A00090ED060A10EE101A084605F017FF41ECFD
:1018B0001A0B9FED350B53EC102B05F049FE02D2AD
:1018C0009FED310B09E0294890ED060A10EE101A41
:1018D000084605F003FF41EC100BB0EE409AF0EE25
:1018E000609A51EC190B05F0F5FD2049886124E060
:1018F0001E4890ED060ADFED260AB4EEE00AF1EE8E
:1019000010FA02DD9FED220A02E0184890ED060A67
:10191000164880ED060A90ED060ADFED1E0AB4EEC9
:10192000E00AF1EE10FA02D29FED1A0A02E00F4827
:1019300090ED060A0D4880ED060A0F4880ED008AFA
:101940000B4890ED000A0B4880ED000A074890ED27
:10195000060ABDEEC00A10EE100A00B2BDEC068BFE
:1019600010BD000088040020000000006404002076
:101970006C0100207001002000030020D100002035
:10198000000000000040BF40000000000040BFC059
:1019900000409C4600409CC69FED4C0A4C4880EDA0
:1019A0003E0A9FED4C0A4C4880ED020A9FED490A21
:1019B0004A4880ED020AB0EE000A474880ED050A69
:1019C000B0EE080A454880ED050AB0EE080A444822
:1019D00080ED000A9FED3F0A80ED020A9FED3D0A6F
:1019E00080ED030A9FED3F0A3F4880ED000A9FED1E
:1019F000390A80ED010A9FED370A80ED020AB0EE48
:101A0000000A3A4880ED000A9FED320A80ED020A92
:101A10009FED300A80ED030A9FED350A354880EDD1
:101A2000000A9FED2C0A80ED010A9FED2A0A80ED45
:101A3000020AB9EE040A304880ED000A9FED250A3B
:101A400080ED020A9FED230A80ED030A9FED2B0A29
:101A50002B4880ED000A9FED2B0A80ED010A9FEDD7
:101A60001D0A80ED020AB9EE0A0A274880ED000A35
:101A70009FED180A80ED010A9FED160A80ED020A1B
:101A80009FED140A80ED030ABAEE0E0A1F4880ED9E
:101A9000000A9FED1F0A80ED010AB0EE080A1D48FA
:101AA00080ED000AB7EE080A1B4880ED000AB2EE8E
:101AB0000E0A80ED020A094890ED030A80ED000A43
:101AC000054890ED030A80ED000A70470AD723BC51
:101AD0000808002000000000B4050020CC0600200B
:101AE000640400200000C84288040020AC040020E8
:101AF0000000A042D0040020D4030020000020C237
:101B0000F80300209A9999BE1C040020400400208C
:101B1000CDCCCCBE180500203C0500206549B1F9AC
:101B2000061011F5257F03D10021634A117008E0EA
:101B30006049B1F90610B1F5257F02D101215E4A55
:101B400011705C49B1F9001011F5257F15D1594983
:101B5000B1F9021011F5257F0FD15649B1F90410E2
:101B6000B1F5257F09D15349B1F9061011F5257F4B
:101B700003D10521514AD18037E04E49097A012924
:101B80001ED14C49B1F9001011F5257F08D1494902
:101B9000B1F9021011F5257F02D10121474AD18008
:101BA0004449B1F90010B1F5257F1ED14149B1F981
:101BB000021011F5257F18D10321404AD18014E08D
:101BC0003C49097A032906D03A49097A012906D104
:101BD0003949097819B90321384AD18005E03549D6
:101BE000097A022901D1354AD1803249B1F9001070
:101BF00011F5257F15D12F49B1F9021011F5257F77
:101C00000FD12C49B1F90410B1F5257F09D129492B
:101C1000B1F9061011F5257F03D10121284A117071
:101C20002CE02449097A032903D10421244A1170A4
:101C300024E02049097A01291BD11E49897A022909
:101C400004D0204991F86410032903DB03211C4AC6
:101C500011700AE01749897A012903D10221184A33
:101C6000117002E00221164A11700121164A11700A
:101C700004E00021124A1170134A117010490978CA
:101C800004290ED10B49897A022903D100210E4A79
:101C9000117006E00749897A022902D001210A4A17
:101CA00011700449097A034A51721146897AD17236
:101CB00070470000300B0020D4020020E80A00200A
:101CC000D200002008080020CE00002010B51249E4
:101CD000124800F073F9D0B1104800F043F9012820
:101CE00005D100220E490D4800F0E4F905E04FF45B
:101CF00000220C49094800F0DDF904210A48006877
:101D000003F08EFB0449054800F050F803E0074952
:101D1000024800F053F910BD0080201040600240DE
:101D20001B0D00201B1100200000002000100410DB
:101D300010B50E490E4800F01FF9A8B100210C485B
:101D400000F04EF80B490A4800F016F800BF0848AA
:101D500000F0FEF80028FAD11421054800F0AFF990
:101D60000121034800F03CF810BD000000080020ED
:101D700088600240000C00200246094B9A4201D2C2
:101D8000084801E00648103801F000531BB1064B2B
:101D90000B40C36002E0044B0B40836070470000BF
:101DA00010640240006002407D0F7D0F0246094B27
:101DB0009A4201D2084801E00648103801F0005369
:101DC0001BB1064B0B40C36002E0044B0B40836029
:101DD0007047000010640240006002407D0F7D0FDC
:101DE00021B1026842F00102026003E0026822F0C1
:101DF0000102026070470000016821F001010160EA
:101E00000021016041608160C16001612121416167
:101E10004A49884204D13D21484A103A91608CE0F9
:101E200046491831884205D14FF47461434A103A4B
:101E3000916082E041493031884205D14FF47411FC
:101E40003E4A103A916078E03C494831884205D1D9
:101E50004FF07461394A103A91606EE03749603151
:101E6000884204D13649354A103AD16065E0334999
:101E70007831884204D13349304A103AD1605CE06D
:101E80002E499031884204D12F492C4A103AD16012
:101E900053E02A49A831884205D14FF03D51274AE5
:101EA000103AD16049E02949884204D13D21274AAE
:101EB000083A116041E025491831884205D14FF4B4
:101EC0007461224A083A116037E020493031884273
:101ED00005D14FF474111D4A083A11602DE01B49D9
:101EE0004831884205D14FF07461184A083A1160B0
:101EF00023E016496031884204D11149134A121F68
:101F000011601AE011497831884204D10D490F4A15
:101F1000121F116011E00D499031884204D10A4925
:101F20000A4A121F116008E00849A831884204D10A
:101F30004FF03D51054A121F11607047106002407A
:101F40003D000020400F002000003D2010640240B2
:101F5000014600200A6802F001020AB1012000E0F7
:101F600000207047014600200A6802F400220AB1EE
:101F7000012000E00020704730B503460A460020EB
:101F800000240B4DAB4201D20A4901E00849103947
:101F900002F000550DB14C6800E00C68064D2C4075
:101FA00004EA02050DB1012000E0002030BD000070
:101FB00010640240006002407D0F7D0F70B5024644
:101FC000002000240025124EB24201D2114B01E044
:101FD0000F4B103B104E0E4036B11E2606EAD124A0
:101FE000166806EA040502E0566906F0800501F06D
:101FF00000560EB15C6800E01C68084E344004EAEC
:10200000010616B10DB1012000E0002070BD0000F6
:1020100010640240006002403C0F3C0F7D0F7D0FBA
:1020200010B501F080034BB122B1436943F0800346
:10203000436103E0436923F08003436180290BD0AF
:102040002AB1036801F01E042343036004E003681F
:1020500001F01E04A343036010BD000010B5002270
:102060000268134B1A40CC680B6823434C69234326
:102070008C692343CC6923430C6A23434C6A234372
:102080008C6A23434C6B23438C6B23431A430260BB
:10209000426922F00702D1E90B3423431A4342611B
:1020A0000B6943604B6883608B68C36010BD0000A0
:1020B0003F801CF00AB1016100E0C16070474160DF
:1020C000704770474FF4FA60810648638863704731
:1020D00007480078012805D140F69210410748636F
:1020E000886304E04FF4FA608106486388637047B0
:1020F000CE00002010B53448007820B3334890ED6E
:10210000030A80ED000A3248408D00EE100AB8EE56
:10211000400A2F4880ED000A9FED2E0A2E4880EDE0
:10212000050A9FED2C0A2D4880ED050A9FED290A2E
:102130002B4880ED050A2B4880692A490860022156
:10214000294800F06AFA01202849087028490870D7
:1021500000201D4908700120264908702649087092
:1021600000F0F8FE1F4A1168906901F041F81D491E
:102170004860224AB2F902101288524210B2DFEDD2
:10218000200A9FED200AFFF7ABF9104890ED001AE6
:10219000F0EE410A90ED031AB0EE410AFFF7D2FAD1
:1021A0000A4948600A4890ED001AF0EE410A408D55
:1021B00001EE100AB8EE411AB0EE410AFFF7C2F97B
:1021C0000349486010BD000010000020B405002045
:1021D000CC06002000000000F80300208804002046
:1021E0003C050020E40700200010024013000020FE
:1021F000140000201100002012000020300B0020ED
:102200008FC2F53C17B7513910B55948007820B343
:10221000584890ED030A80ED000A5748408D00EEC3
:10222000100AB8EE400A544880ED000A9FED530AA8
:10223000534880ED050A9FED510A524880ED050A8A
:102240009FED4E0A504880ED050A504880694F497D
:10225000086002214E4800F0E0F901204D49087065
:102260004D4908704D49087000204149087001200F
:102270004B4908700020454948603F48408D40F672
:102280003401884204DDB8EE080A3B4880ED050AB7
:102290003948408D40F2DC51884204DAB0EE080A39
:1022A000354880ED050A3F48807A01280AD1314837
:1022B00090ED000AD0ED050A9FED3B1A01EE200AD1
:1022C00080ED000A2C4890ED000AD0ED050A30EEB2
:1022D000200A80ED000A274890ED030AD0ED000A9D
:1022E00030EE600ADFED310AB4EEE00AF1EE10FAEA
:1022F0000CDC90ED030AD0ED000A30EE600ADFED51
:102300002C0AB4EEE00AF1EE10FA13D200201949BB
:10231000486019494860174890ED030A80ED000AAB
:102320000846408D00EE100AB8EE400A084680EDDF
:10233000000A1CE00F4890ED001AF0EE410A90ED03
:10234000031AB0EE410AFFF7FDF90A4948600A484E
:1023500090ED001AF0EE410A408D01EE100AB8EE41
:10236000411AB0EE410AFFF7EDF80349486010BD8D
:1023700011000020B4050020CC0600200000000061
:10238000F8030020880400203C050020E40700201A
:102390000010024013000020140000201000002054
:1023A00012000020300B0020CDCCCC3D0000484373
:1023B000000048C310B530480078B0B19FED2F0A37
:1023C0002F4880ED050A9FED2D0A2E4880ED050A65
:1023D0009FED2A0A2C4880ED050A2C4880692B497C
:1023E000086002212A4800F018F9012029490870E4
:1023F00029490870294908702949087000201E4998
:102400000870012000F0A6FD204A1168906900F0D4
:10241000EFFE1E4948602348D0ED0F1AB0EE611A56
:10242000D0ED0E1AF0EE610AD0ED0D1AB0EE610A91
:1024300000F0F5F81C4890ED001AD0ED021A31EECC
:10244000211AF0EE410A90ED031AB0EE410A02F0B3
:10245000FFF915494860154890ED001AF0EE410A61
:10246000408D01EE100AB8EE411AB0EE410A00F0BC
:1024700031FC0E49486010BD120000200000000031
:10248000F8030020880400203C050020E407002019
:102490000010024013000020140000201000002053
:1024A000110000209C0A0020B4050020CC0600206A
:1024B0001748007890B1174890ED030A80ED000AA4
:1024C0009FED150A154880ED050A9FED130A144883
:1024D00080ED050A134880691249086000200C4904
:1024E00008700120104908701049087010490870E0
:1024F000104908700020074948600F4948600949A1
:1025000048604FF4FA600D490860091D0860704783
:1025100013000020B405002000000000F803002094
:1025200088040020E4070020140000201000002090
:102530001100002012000020CC06002034080040CA
:10254000F0B50A4600210023002400BF3DE001252C
:1025500005FA01F3156805EA03049C4234D10568C5
:102560004F000326BE40B543056015794E00B540C7
:102570000668354305601579012D02D01579022DC5
:1025800016D185684F000326BE40B5438560557956
:102590004E00B540866835438560456801268E400B
:1025A000B5434560456896798E40B6B2354345607F
:1025B000C5684F000326BE40B543C560D5794E00BF
:1025C000B540C6683543C560491C1029BFD3F0BD6E
:1025D000F0B5002300244D07ED0E02FA05F3CE10EE
:1025E00000F1200555F826504E07F70E0F26BE4085
:1025F000B543CF1000F1200646F82750CE1000F169
:10260000200555F8265045EA0304CE1000F12005B8
:1026100045F82640F0BD41837047018370477047FD
:102620002DE9F04104460D4616461F46012010498B
:1026300008704FF4C470486000210D480173417365
:1026400008218173210AC1730474290A41748574B5
:10265000310AC1740675390A4175877500230A224B
:1026600001460448006804F075F9BDE8F0810000F7
:10267000A80B0020FC00002000BF48480078484913
:1026800008700020454908704648006844490861C0
:10269000002044490860444890F8280040494870A8
:1026A0000020414981F82800404890F828003C4922
:1026B000887000203D4981F828003D48007C384959
:1026C000C87000203A4908743A4800783449C87103
:1026D000002038490860384800683149C860002047
:1026E00035490860354908702D4800780A2802DA13
:1026F00044F0010402E04FF6FE70044028480069EF
:102700000F2807DA44F002042C480078401C2B49BB
:10271000087002E04FF6FD700440214840783C28E4
:1027200007DA44F0040425480078401C2349087067
:1027300002E04FF6FB700440194880783C2807DA25
:1027400044F008041D480078401C1C49087002E051
:102750004FF6F77004401248C0783C2807DA44F07E
:10276000100416480078401C1449087002E04FF627
:10277000EF7004400A48C0791E2807DA44F040048C
:102780000E480078401C0D49087002E04FF6BF70FB
:102790000440C82003F006FC6FE700002C01002075
:1027A000F40A002054010020CC060020B4050020CB
:1027B000E4070020DC0000203C010020160000207F
:1027C00008B50020009000BF04F038FC009073486A
:1027D00090ED141AF0EE410A714890ED141AB0EE23
:1027E000410ADFED701A9FED6F1A6F4802F098FCF6
:1027F0006E486D4C241D1ECC34301EC06C480068E1
:10280000062802DD01206A490860694908786449A0
:10281000D1ED030AB0EE600A00F0AAF9644800683E
:10282000401C63490860634890ED1B0A624880EDD4
:10283000000A5B4890ED140A5F4880ED010A584891
:1028400090ED030A5C4880ED020A584890ED0D0AAD
:10285000594880ED030A59480068401C57490860F0
:102860000846006841F28831884202DD0020534961
:10287000086053480068401C5149086008460068D9
:1028800041F28831884202DD00204D4908600098FD
:10289000FFF744F9FFF71CFC4A48007805282FD2BF
:1028A000DFE800F02203282B2500444800684FF49D
:1028B000C87190FBF1F201FB1200A0B9012080F376
:1028C000138800BF00BFBFF34F8F3F48006800F47C
:1028D000E0603E490843001D3B490860BFF34F8F4D
:1028E00000BF00BFFEE70BE0FFF7E2FD08E0FFF7E7
:1028F00001FC05E0FFF788FC02E0FFF75BFD00BF8D
:1029000000BF264890ED000ADFED310AB4EEE00A80
:10291000F1EE10FA02DD9FED2E0A02E01F4890ED65
:10292000000A1E4880ED000A90ED000ADFED290A3A
:10293000B4EEE00AF1EE10FA02D29FED260A02E0B0
:10294000164890ED000A154880ED000A1449898860
:1029500008B200231A461946FEF76AFD1E48808811
:1029600002B20E48808801B200231846FEF78CFDA3
:102970000A4B93ED030ABDEEC00A10EE103A1AB2EC
:10298000164BB3F90410164BB3F906000023FFF7FA
:1029900047FE0221684603F04BFB15E7CC060020FA
:1029A000B405002000000000F01700209C0A002061
:1029B0000C00002008080020C403002004000020B0
:1029C00008000020D20000200CED00E00000FA0515
:1029D00000A00C4500C0A844E4070020300B0020F4
:1029E000E80A002000BFFEE700200BE00F4901EBE2
:1029F000800191ED000A0E4901EB800181ED000A92
:102A0000411CC8B20128F1DB00200BE0094901EBB1
:102A1000800191ED000A084901EB800181ED000A77
:102A2000411CC8B20128F1DB7047000040030020C0
:102A300010030020440300201803002010B540229A
:102A400011491248FDF7D1FC402211490F48503876
:102A5000FDF7CBFC40220F490C484038FDF7C5FC80
:102A600040220D4909488030FDF7BFFC40220B4948
:102A70000648C030FDF7B9FC402209490348403000
:102A8000FDF7B3FC10BD0000B4010020F0160020DB
:102A90001C1500205C150020340200207402002068
:102AA000F40100201CB50121102000F01DFC0220C3
:102AB000009001208DF8040000208DF8060003200E
:102AC0008DF8050069460448FFF73AFD02210248E7
:102AD000FFF7A3FD1CBD00000010024000BFFEE791
:102AE0007047000070B5002100230F22C4781CB38A
:102AF000174C246804F4E064C4F5E064C4F30721CF
:102B0000C1F10404E3B20A4144789C40E1B2847804
:102B1000144021430C07210E0E4C057861550478B2
:102B200004F01F050124AC4005786D11AD0005F1DE
:102B3000E025C5F8004109E0047804F01F050124F0
:102B4000AC40054D0678761145F8264070BD000072
:102B50000CED00E000E400E080E100E00249014308
:102B6000024A1160704700000000FA050CED00E019
:102B700070B52DED028B84B0B0EE408A0646B5EEFE
:102B8000C08AF1EE10FA0CD2BAEE040A28EE000A5E
:102B9000BDEEC00A10EE100A04B22D208DF8080018
:102BA0000BE0B2EE040A28EE000ABDEEC00A10EEF9
:102BB000100A04B22B208DF80800AF208DF8040015
:102BC00052208DF805004C208DF8060052208DF81B
:102BD0000700200A8DF80900E0B28DF80A008DF890
:102BE0000B60FA208DF80C00002505E001A9485D76
:102BF00001F0BCFA681CC5B2092DF7DB04B0BDECCE
:102C0000028B70BD00B58BB00121084600F06CFB53
:102C10000121084600F078FB0320099002208DF87E
:102C2000280003208DF8290009A92948FFF788FC0E
:102C3000012200212648FFF7CBFC0122114624483F
:102C4000FFF7C6FC2920ADF818000020ADF81A00E7
:102C500042F2107007900020ADF8200006A94FF056
:102C6000804000F07BFD7020ADF804000120ADF83D
:102C700006000020ADF8080003900220ADF8100017
:102C80000020ADF81200ADF814004FF48070ADF8DC
:102C9000160001A9800500F0B9FC01A94FF08040A1
:102CA00000F0FCFC0821C80600F0EEFC0821C80674
:102CB00000F046FD0121880700F080FC0121880713
:102CC00000F094FC0121880700F084FC0BB000BDEB
:102CD0000000024010B52DED028BB0EE408AF0EE00
:102CE000608A04F0ABF904468D4890ED040A80ED4B
:102CF000050AB1EE480A30EE280A80ED040A90ED8C
:102D0000040AB5EEC00AF1EE10FA02DD90ED040AF5
:102D100004E0834890ED040AB1EE400ADFED810A39
:102D2000B4EEE00AF1EE10FA09D27D4890ED070A00
:102D3000D0ED040A30EE200A80ED070A04E09FED92
:102D40007A0A774880ED070A754890ED070ADFEDAB
:102D5000770AB4EEE00AF1EE10FA02DD9FED730A95
:102D600002E06F4890ED070A6D4880ED070A90ED8C
:102D7000070ADFED6F0AB4EEE00AF1EE10FA02D2B4
:102D80009FED6B0A02E0664890ED070A644880ED0B
:102D9000070A90ED040AD0ED000A20EE200AD0EDDB
:102DA000070A90ED011A00EE810A80ED060A6148DB
:102DB00090ED040A80ED050A594890ED060A5E4838
:102DC000D0ED000AF1EE600A30EE200A594880ED9D
:102DD000040A90ED040AB5EEC00AF1EE10FA02DD25
:102DE00090ED040A04E0534890ED040AB1EE400A65
:102DF000DFED520AB4EEE00AF1EE10FA09D24D48C6
:102E000090ED070AD0ED040A30EE200A80ED070AA3
:102E100004E09FED450A474880ED070A454890EDDC
:102E2000070ADFED470AB4EEE00AF1EE10FA02DD20
:102E30009FED430A02E03F4890ED070A3D4880EDD0
:102E4000070A90ED070ADFED3F0AB4EEE00AF1EE63
:102E500010FA02D29FED3B0A02E0364890ED070AD5
:102E6000344880ED070A384890ED000A3248D0ED2A
:102E7000000A30EE600A2F48D0ED020A20EE201A38
:102E8000006A201A00EE100AB8EE400AC1EE000AED
:102E9000284890ED040A90ED001A20EE010A90ED0A
:102EA000071AD0ED011A01EE210A30EE800A80EDFA
:102EB000060A90ED060ADFED250AB4EEE00AF1EE0F
:102EC00010FA02DD9FED210A02E01A4890ED060A91
:102ED000184880ED060A90ED060ADFED1D0AB4EEF3
:102EE000E00AF1EE10FA02D29FED190A02E0114851
:102EF00090ED060A0F4880ED060A0F4890ED000A93
:102F0000114880ED000A0B48046290ED060ABDEE00
:102F1000C00A10EE100A00B2BDEC028B10BD00001A
:102F2000400400200000C8420000000000803B4533
:102F300000803BC51C040020680100200000C8433D
:102F40000080BB440080BBC47401002000409C464C
:102F500000409CC610B52DED048B04469348807A42
:102F600002282ED1924890ED080ADFED920AB4EEC5
:102F7000E00AF1EE10FA24D28C48007A012820D120
:102F80008D4890F864005F281BDB8C480088642122
:102F900090FBF1F201FB120068B989480168806971
:102FA000081A8849884206DA8548006845F24421B3
:102FB00008448349086081480088401C7F49088094
:102FC000E0E07A48807A012829D1794890ED080A12
:102FD000DFED780AB4EEE00AF1EE10FA1FD2734882
:102FE000007A03281BD175480088642190FBF1F218
:102FF00001FB120068B9724801688069081A7149BA
:10300000884206DA6E48006845F2442108446C495B
:1030100008606A480088401C68490880B2E063483C
:10302000807A01287DD1624890ED080ADFED610ABF
:10303000B4EEE00AF1EE10FA73D25C48007A01288F
:103040006FD15D4890F864005F286ADB5E4890EDC0
:10305000000ADFED5E0AB4EEE00AF1EE10FA3CD8A9
:1030600090ED000ADFED5A0AB4EEE00AF1EE10FA34
:1030700033DB514890ED1B0A10EE101A084604F09D
:103080002DFB41EC190BB0EE490AF0EE690A01F094
:10309000BBFCB0EE408AF0EE608A9FED4E0B53EC25
:1030A000102B51EC180B04F053FA5ED24348008801
:1030B000322190FBF1F201FB120098BB40480168FD
:1030C0008069081A3F4988424FDA3D4800684AF251
:1030D000884108443A49086047E03B4890ED000ABF
:1030E000DFED3B0AB4EEE00AF1EE10FA3DD290EDCE
:1030F000000ADFED3A0AB4EEE00AF1EE10FA34DB32
:103100002D4890ED1B0A10EE101A084604F0E6FA5E
:1031100041EC190BB0EE490AF0EE690A01F074FCBB
:1031200001E028E021E0B0EE408AF0EE608A9FEDF9
:103130002C0B53EC102B51EC180B04F009FA14D2A1
:103140001E480088C82190FBF1F201FB120060B913
:103150001B4801688069081A1A49884205DA18482C
:103160000068214908441649086014480088401C3A
:103170001249088006E00020104908801048806944
:103180000F4908600E4801688069081A174988428B
:1031900009DD0B488069A0F57640CC380849086005
:1031A000012006490880BDEC048B10BD300B0020C7
:1031B000080B00200000C843080800200803002076
:1031C000E4070020C0D40100CC06002000A00C457C
:1031D0000080D444000000000000104000C0A8445B
:1031E000000000000000004010490100400D0300F5
:1031F0000246384890ED040A80ED050A881A00EE70
:10320000100AB8EEC00A334880ED040A90ED040AB3
:10321000D0ED000A20EE200AD0ED040A90ED051A48
:1032200070EEC10A90ED021A00EE810A80ED060AE6
:10323000294890ED040A80ED050A2648D0ED060ADB
:103240002648B0F9160000EE100AB8EEC00A30EEBB
:10325000C00A214880ED040A90ED040AD0ED000A6E
:1032600020EE200AD0ED040A90ED051A70EEC10A96
:1032700090ED021A00EE810A80ED060A90ED060A32
:10328000DFED170AB4EEE00AF1EE10FA02DD9FED71
:10329000140A02E0104890ED060A0F4880ED060A75
:1032A00090ED060ADFED0F0AB4EEE00AF1EE10FA37
:1032B00002D29FED0C0A02E0074890ED060A06488C
:1032C00080ED060A90ED060ABDEEC00A10EE100A67
:1032D00000B270473C05002018050020E4070020DC
:1032E00000C0DA4500C0DAC529B1064A12680243B7
:1032F000044B1A6004E0034A12688243014B1A60CF
:10330000704700003038024029B1064A1268024373
:10331000044B1A6004E0034A12688243014B1A60AE
:10332000704700004038024029B1064A1268024343
:10333000044B1A6004E0034A12688243014B1A608E
:103340007047000020380240F0B500210022002420
:10335000022500260223324F3F6807F00C0121B1FD
:10336000042905D0082937D105E02E4F076036E043
:103370002D4F076033E02A4F3F1F3F68C7F3805649
:10338000274F3F1F3F6807F03F036EB1264FB7FB43
:10339000F3F7DFF88CC0ACF1040CDCF800C0CCF320
:1033A000881C07FB0CF40CE01E4FB7FBF3F7DFF8AB
:1033B00070C0ACF1040CDCF800C0CCF3881C07FB37
:1033C0000CF4174F3F1F3F68C7F301477F1C7D0078
:1033D000B4FBF5F7076002E0124F076000BF00BFC3
:1033E0000F4F3F6807F0F0010909104F7A5C07683A
:1033F000D74047600A4F3F6807F4E051890A0B4FF6
:103400007A5C4768D7408760054F3F6807F46041A2
:10341000490B064F7A5C4768D740C760F0BD000093
:10342000083802400024F40000127A00480300200B
:103430000CB50020019000903448006840F48030C2
:103440003249086000BF3148006800F40030009045
:103450000198401C0190009818B90198B0F5A04F50
:10346000F1D12A48006800F4003010B1012000902A
:1034700001E0002000900098012846D12348403008
:10348000006840F0805021494031086020480068C1
:1034900040F440401E4908601C48083000681B4941
:1034A000083108600846006840F40040086008469B
:1034B000006840F4A05008601648091F0860081F03
:1034C000006840F08070091F086000BF0F48006866
:1034D00000F000700028F9D040F205700E49086035
:1034E0000A480830006820F00300084908310860E5
:1034F0000846006840F00200086000BF034808303A
:10350000006800F00C000828F8D10CBD003802401B
:103510000070004008544007003C0240042808D1D5
:103520004FF0E021096941F004014FF0E022116100
:1035300007E04FF0E021096921F004014FF0E0229B
:103540001161704710B503F069FD012801D003F047
:1035500083F810BD10B51548006840F47000134999
:1035600008601348006840F001001149086000201D
:103570000F49083108600E4800680E4908400C49A0
:1035800008600D48091D0860081F006820F48020AD
:10359000091F0860002006490C310860FFF748FF4A
:1035A0004FF0006001498039086010BD88ED00E0EF
:1035B00000380240FFFFF6FE1030002421B10288DF
:1035C00042F08002028004E002884FF67F731A40C6
:1035D0000280704721B1028842F00102028004E0BB
:1035E00002884FF6FE731A400280704731B1B0F87E
:1035F000442042F40042A0F8442005E0B0F8442002
:10360000C2F30E02A0F844207047000070B50024F9
:1036100000220023058C4FF6FE7635400584028C8F
:103620008388048B4FF68F752C40B51E2C400D8877
:103630002C43751E2A408D892A434D882A43104DFC
:10364000A84202D00F4DA84213D14FF6F7752A4079
:10365000CD892A434FF6FB752A408D882A434FF6C1
:10366000FF652B404FF6FF552B400D8A2B434D8AAB
:103670002B43838004838D684563028470BD000002
:1036800000000140000401400A460021018B4FF672
:10369000F7731940114301837047000070B500248F
:1036A00000220023058C4FF6EF7635400584028C0E
:1036B0008388048B48F6FF752C404FF6FF452C405D
:1036C0000D884FF6FF7606EA05252C434FF6DF7589
:1036D0002A408D8906EA05152A434D8806EA051514
:1036E0002A43154DA84202D0144DA8421DD14FF6D1
:1036F0007F752A40CD894FF6FF7606EA05152A43E5
:103700004FF6BF752A408D8806EA05152A434FF605
:10371000FF352B404FF2FF752B400D8A06EA8505D9
:103720002B434D8A06EA85052B43838004838D68ED
:103730008563028470BD0000000001400004014068
:103740000A460021018B4FF2FF7319404FF6FF73B9
:1037500003EA022319430183704700000022028814
:10376000184B98420ED0184B98420BD0B0F1804FB6
:1037700008D0164B984205D0154B984202D0154BF5
:10378000984204D14FF68F731A404B881A43124B5C
:10379000984207D0114B984204D04FF6FF431A408D
:1037A0000B891A4302804B68C3620B880385054B63
:1037B000984202D0044B984201D18B7A03860123B0
:1037C0008382704700000140000401400004004073
:1037D00000080040000C00400010004000140040B1
:1037E00086B000BF00235A1E69460948006802F0EF
:1037F00091FF9DF80000012804D101A90548FDF7BB
:103800007BFDEFE701A90448FDF776FDEAE700003C
:10381000FC00002000640040006800401FB5044622
:103820004FF44070FFF79AF9FDF7B6FAFDF7D8FCB0
:1038300000F096F8FCF79AFE00221821402002F0D2
:1038400025FF2A490860FFF7F9F82949294801F0BE
:1038500055FDFFF7C9F8FEF79FF800F05BFF00F099
:10386000C9FEFFF7CFF9FEF72DFCFFF71BF900208B
:103870000323CDE9003002900346C8221EA1039025
:10388000214803F0F5F900200423CDE9003002902F
:10389000034664221DA10390204803F0E9F90020AB
:1038A0000323CDE90030029003464FF400721CA1BF
:1038B00003901E4803F0DCF900211D48FEF790FA42
:1038C00000BF1B48FEF744FB0028FAD1132118481B
:1038D000FEF7F5FB01211648FEF782FA4FF4FA7065
:1038E00002F060FB002002F021FC1FBDFC00002064
:1038F0009C150020F01700205461736B5F43414E0C
:1039000053656E6400000000E137000847696D628E
:10391000616C5F4D6F6E69746F72000079260008EC
:1039200047696D62616C5F5461736B00C127000869
:103930001060024010B50748008807490870054824
:10394000001F0088087002210448006801F068FD2B
:1039500010BD0000044C0040820100200000002047
:1039600000B597B001213C48FFF7BEFC01210805D6
:10397000FFF7CAFC02208DF8480000208DF84A00AD
:103980000420119001208DF84B0003208DF8490090
:1039900011A93248FEF7D4FD082202212F48FEF774
:1039A00017FE2F4813900020ADF858000420ADF802
:1039B00056000020ADF85400ADF85200ADF85000AC
:1039C00013A9284800F0ACFD01224021254800F051
:1039D0006BFD0121234800F05BFD4FF0006001907A
:1039E0002048001D029020480390002004901920D8
:1039F0000590002006904FF4806007900020099009
:103A000008900A904FF480300B9000200C90032017
:103A10000D9000200E900F9001A91448FEF71EFB98
:103A200001211248FEF7DCF935208DF84000012015
:103A30008DF843000B208DF8410000208DF84200E6
:103A400010A8FFF74FF8012240F22441054800F08A
:103A500041FD17B000BD000008002000000C02402E
:103A6000A0860100005000401C0C002010600240A5
:103A700010B55F4880885F4908605D48008808602D
:103A800000215D48FEF7ACF95B48103840695B489F
:103A90000078401C594908705948007858494978BD
:103AA00040EA0120C0F30A00564908800846008811
:103AB00010B94FF48060088052480088A0F58060FB
:103AC00000B2504908804E484078C0104C4989786F
:103AD00040EA4110C0F30A004A494880084640883D
:103AE00010B94FF48060488046484088A0F5806057
:103AF00000B2444948804248807880114049C978E2
:103B000040EA81003E49097940EA8120C0F30A0079
:103B10003C4988800846808810B94FF480608880CE
:103B200038488088A0F5806000B2364988803448E3
:103B3000007940103249497940EAC110C0F30A00C7
:103B40003049C8800846C08810B94FF48060C880EA
:103B50002C48C088A0F5806000B22A49C880284857
:103B6000407900118008087225484079C0F301109F
:103B70008872234880792249C97940EA012000B23D
:103B8000204988811E48007A1D49497A40EA01206F
:103B900001B21C48C1811A48807A1949C97A40EAA1
:103BA000012001B2174801821548017B1548817434
:103BB0001348417B1348C1741148807B1049C97B6D
:103BC00040EA01200F49C8820F490B48FEF7D4F89C
:103BD00000BF0948FEF7BCF90028FAD119210648B0
:103BE000FEF76DFA01210448FEF7FAF810BD000057
:103BF0000050004030010020106002402C010020E5
:103C00001C0C0020300B00203000001010B5FE48C6
:103C10000088FE490860FC48001F008808600021F9
:103C2000FB48FEF7DDF8FB480068401CF9490860D6
:103C3000F948C079022802DD0020F749C871F6482A
:103C4000C07900EE100AB8EE400AF44880ED1E0A72
:103C500090ED1E0AF7EE000AB4EE600AF1EE10FADB
:103C600059D1ED48007800EE100AB8EE400AEB4852
:103C700080ED1A0AE848807800EE100AB8EE400A93
:103C80009FEDE71AC0EE010AE348407800EE100A03
:103C9000B8EE400A30EE800ADFEDE20A30EE600A4C
:103CA000DE4880ED1B0ADC48007900EE100AB8EE11
:103CB000400A9FEDDB1AC0EE010AD748C07800EE3B
:103CC000100AB8EE400A30EE800ADFEDD60A30EE78
:103CD000600ADFEDD50A20EE200AD04880ED1C0AEC
:103CE000CD484079CC49897940EA012000EE100A9C
:103CF000B8EEC00ADFEDCA0A80EE201AC74880ED90
:103D00001D1AC548407A00EE100AB8EE400AC348B2
:103D100080ED1F0A19E0C14890ED1A0A80ED1A0AD9
:103D20009FEDC20A80ED1B0A9FEDC00A80ED1C0AC0
:103D300090ED1D0A80ED1D0AB748407A00EE100A8A
:103D4000B8EE400AB54880ED1F0AB44890ED1C0A51
:103D5000F0EE000AB4EEE00AF1EE10FA08DC90EDA5
:103D60001C0AF8EE000AB4EEE00AF1EE10FA18D2DE
:103D7000AA4890ED1C0AB5EEC00AF1EE10FA04DB79
:103D8000B0EE080A80ED1C0A0BE0A44890ED1C0A76
:103D9000B5EEC00AF1EE10FA03D2B8EE080A80EDD3
:103DA0001C0A00209D4981F864006320A049087026
:103DB00016E09F480078401E9849085C9C4A12789B
:103DC0008854084690F86400994A1278895C08443F
:103DD000924981F8640096480078401E9449087022
:103DE000934800780028E4DC8C4890ED1E0ABCEE75
:103DF000C00A10EE100A89490870084690ED1A0AA8
:103E0000BCEEC00A10EE100AC0B2AA287DD1084646
:103E100090ED1E0AF7EE000AB4EE600AF1EE10FA19
:103E2000F4D1002081F865006320814908702AE000
:103E30007F480078401E7F4901EB800090ED000A2A
:103E400008467B49097800EB810080ED000A734841
:103E500090F8650000EE100AB8EE400A7548744903
:103E6000097800EB8100D0ED000A30EE200ABCEEAC
:103E7000C00A10EE100A694981F865006C480078A4
:103E8000401E6B4908706A4800780028D0DC1D206D
:103E90006749087014E066480078401E5F49803129
:103EA00001EB800090ED000A08466149097800EBBB
:103EB000810080ED000A5E480078401E5C49087071
:103EC0005B4800780028E6DC31205949087024E07E
:103ED00057480078401E584901EB800090ED000AD9
:103EE00008465349097800EB810080ED000A5048EC
:103EF0000078401E514901EB800090ED000A084611
:103F00004B49097800EB810000E012E180ED000AE6
:103F100047480078401E4649087045480078002808
:103F2000D6DC3E4890ED1B0A43485038D0ED020ADB
:103F300030EE600A394880ED200A90ED1F0A80EDCE
:103F4000400A90EDA40AF2EE020A80EE201A80EDFB
:103F5000A41A3948503890ED030A3048D0ED1B0AB6
:103F600030EE600AD0ED3E0A354890ED001A60EE62
:103F7000810A9FED341A00EEC10A2F48503880EDB7
:103F8000140A264890ED1C0ADFED2F0A20EE200AC5
:103F90009FED2E1AC0EE010A28485038408D00EEE1
:103FA000100AB8EE400A30EE800A2448503880EDFE
:103FB000140A274890ED090A80ED0B0A90ED0A0AD1
:103FC00080ED0C0A1C48503890ED140AD0ED160A0A
:103FD00030EE600ADFED1F0A20EE200A1C4880ED5B
:103FE000090A1648503890ED140AD0ED160A30EE42
:103FF000600ADFED190A20EE200A154880ED0A0A52
:1040000090ED090A2AE00000044400403801002035
:10401000886002403C010020350C00200808002088
:104020000000C8420000B4429A99193F0000000005
:104030003401002008090020040600201C0700208D
:104040006C010020CDCCCC3D00F8FF450000B4430E
:104050009C0A00208FC2753C0AD7A33CD0ED0B0A06
:1040600030EE600AB5EEC00AF1EE10FA06DD90ED12
:10407000090AD0ED0B0A30EE600A08E0364890EDF0
:10408000090AD0ED0B0A30EE600AB1EE400AF0EEFC
:10409000080AB4EEE00AF1EE10FA0EDD2E4890EDBB
:1040A000090ADFED2E0A20EE200AD0ED0B0A1FEDE3
:1040B000221A00EE810A80ED090A274890ED0A0ACB
:1040C000D0ED0C0A30EE600AB5EEC00AF1EE10FA3F
:1040D00006DD90ED0A0AD0ED0C0A30EE600A08E029
:1040E0001D4890ED0A0AD0ED0C0A30EE600AB1EEE0
:1040F000400AF0EE080AB4EEE00AF1EE10FA0EDD26
:10410000154890ED0A0ADFED150A20EE200AD0EDE1
:104110000C0A1FED3B1A00EE810A80ED0A0A1048D6
:1041200090ED1D0ABDEEC00A10EE100A00B20A4959
:1041300048840C490C48FDF71FFE00BF0A48FDF7F4
:1041400007FF0028FAD114210748FDF7B8FF012125
:104150000548FDF745FE10BD9C0A0020CDCCCC3EA5
:1041600008080020000C00208860024010B50446BA
:104170002146054800F0CAFA00BF4021024800F07D
:104180009CF90128F9D110BD0044004010B5A548A4
:104190000088A5490860A348001F00880860002126
:1041A000A248FDF71DFEA2480068401CA049086017
:1041B000A0480068401C9F49086008460068122813
:1041C00001DD122008609C4880789C4988709A48DC
:1041D000C078C870984800799749497940EA012029
:1041E00097490880944880789349C97840EA01202B
:1041F00094490870084602788F49891D9248FCF757
:10420000AFF800209149088004228C498F4800F0C3
:104210003FFF8C4802788C498C4800F039FF8B486E
:10422000008887490988884278D18348007C824980
:10423000497C40EA012000B200EE100AB8EEC00A44
:10424000834880ED000A7C48007D7B49497D40EA37
:10425000012000B200EE100AB8EEC00A7D4880EDE1
:10426000000A754890F82000734991F8211040EA3F
:10427000012000B200EE100AB8EEC00ADFED760AA7
:1042800080EE201A754880ED001A6B4890F82200E5
:10429000694991F8231040EA012000B200EE100AAB
:1042A000B8EEC00AF2EE040A80EE201A6C4880EDE7
:1042B000001A1D2007E0411E6A4A52F8211042F8F8
:1042C0002010411EC8B20028F5DC614890ED000ABC
:1042D000BDEEC00A634880ED000A614890ED000A17
:1042E000614880ED030A5D4890ED000A5F4880ED6B
:1042F000030A5B4890ED000A5D48D0ED000A30EEFD
:10430000600ADFED5C0AB4EEE00AF1EE10FA06DDB9
:1043100059480068401C5849086014E06FE0504854
:1043200090ED000A5248D0ED000A30EE600ADFED51
:10433000530AB4EEE00AF1EE10FA04D24E480068D7
:10434000401E4D490860454890ED000A4C48D0EDAC
:10435000000A30EE600ADFED470AB4EEE00AF1EE43
:1043600010FA05DD47480068401C4649086013E024
:104370003A4890ED000A4248D0ED000A30EE600A5B
:10438000DFED3E0AB4EEE00AF1EE10FA04D23D4849
:104390000068401E3B490860264800680C2804DA83
:1043A000002035490860374908602F4890ED030A1E
:1043B0003148D0ED000AF8EEE00A9FED331A01EE25
:1043C000600A294880ED030A284890ED030A2D4829
:1043D000D0ED000AF8EEE00A9FED2B1A01EE600A1C
:1043E000224880ED030A1E4890ED000A204880ED27
:1043F000000A1A4890ED000A214880ED000A23497E
:104400000A48FDF7B9FC00BF0848FDF7A1FD0028E8
:10441000FAD129210548FDF752FE01210348FDF795
:10442000DFFC10BD04480040440100202860024029
:104430005401002048010020E70C00207E010020EC
:104440007A01002078010020C40C00207C010020AB
:10445000680100206C0100200000C84258010020C3
:104460005C0100204C0C0020B4050020CC0600208C
:1044700060010020000034434C010020000034C3E0
:1044800064010020500100200000B443000C001023
:1044900021B1828942F40052828104E082894DF682
:1044A000FF731A40828170471AB1838A0B4383825B
:1044B00002E0838A8B438382704702460020B1F575
:1044C000007F00D100BF13880B400BB1012000E03A
:1044D00000207047F0B50346002400260025002088
:1044E00040F66A17B94200D100BF1846C1F3421422
:1044F00001F01F06012707FA06F5012C01D10C3047
:1045000004E0022C01D1103000E014301AB1076829
:104510002F43076002E00768AF430760F0BD00006B
:104520002DE9FF4705460E460024A14600BFA046E0
:10453000B08900B100BF2C8A24F44054F0880443B1
:104540002C82AC8941F20C608443B08831890843E5
:10455000718908430443AC81AC8A24F44074B08967
:104560000443AC826846FEF7EFFE2048854202D045
:104570001F48854202D1DDF80C9001E0DDF808907B
:10458000A88900F4004040B109EBC90000EB091014
:1045900031684900B0FBF1F707E009EBC90000EB17
:1045A000091031688900B0FBF1F76420B7FBF0F027
:1045B00004012009642101FB1078A88900F400405F
:1045C00040B1322000EBC800B0FBF1F000F0070072
:1045D000044308E0322000EB08106421B0FBF1F046
:1045E00000F00F0004432C81BDE8FF87001001405C
:1045F0000014014000B597B001214805FEF774FE94
:1046000001210820FEF770FE01214804FEF77CFE20
:104610006020119002208DF8480000208DF84A009B
:1046200003208DF8490000208DF84B0011A9334874
:10463000FDF786FF072205213048FDF7C9FF072255
:1046400006212E48FDF7C4FF4FF4E13013900020FF
:10465000ADF85000ADF85200ADF854000C20ADF8A4
:1046600056000020ADF8580013A92548FFF758FF61
:10467000012240F224412248FFF72CFF012120486B
:10468000FFF706FF012240211D48FFF70DFF1D48DF
:10469000FDF7B2FB4FF0006001901948001D029039
:1046A00019480390002004901420059000200690E3
:1046B0004FF4806007900020099008900A904FF412
:1046C00080300B9000200C9003200D9000200E9065
:1046D0000F9001A90B48FDF7C1FC26208DF8400082
:1046E00002208DF841008DF8420001208DF8430032
:1046F00010A8FEF7F7F917B000BD0000000C02404B
:104700000044004088600240350C0020C1F30802DC
:104710008280704700B597B001214805FEF7E4FD9F
:1047200001218805FEF7E0FD01210820FEF7DCFDF0
:1047300001218804FEF7E8FD02208DF848000020E2
:104740008DF84A004FF44070119001208DF84B0015
:1047500003208DF8490011A93848FDF7F1FE072222
:1047600008213648FDF734FF072209213348FDF7B9
:104770002FFF4FF4612013900020ADF858000C205B
:10478000ADF856000020ADF85400ADF85200ADF879
:10479000500013A92A48FFF7C3FE012280212848B0
:1047A000FFF782FE012240212548FFF77DFE01210F
:1047B0002348FFF76DFE27208DF8400001208DF87B
:1047C000430002208DF8410000208DF8420010A81F
:1047D000FEF788F9012240F224411948FFF77AFEDA
:1047E0004FF0006001901648001D0290154803909C
:1047F0000020049029200590002006904FF480604E
:1048000007900020099008900A904FF480300B9098
:1048100000200C9003200D9000200E900F9001A915
:104820000948FDF71BFC012210210748FDF7F8FBA2
:1048300001210548FDF7D4FA17B000BD000C024075
:1048400000480040E70C00202860024000BFFEE75F
:1048500010B52DED028BF0EE408AB0EE608A02F0CA
:10486000EDFB0446614890ED040A80ED050AB1EEC7
:10487000480A30EE280A80ED040A90ED040AB5EEED
:10488000C00AF1EE10FA02DD90ED040A04E0574888
:1048900090ED040AB1EE400AF0EE080AB4EEE00A28
:1048A000F1EE10FA09D2514890ED070AD0ED040A52
:1048B00030EE200A80ED070A04E09FED4D0A4B48D8
:1048C00080ED070A494890ED040AD0ED000A20EE79
:1048D000200AD0ED070A90ED011A00EE810AD0ED12
:1048E000040A90ED051A70EEC10A90ED021A00EE6E
:1048F000810A80ED060A3F4890ED040A80ED050A22
:104900003A4890ED060A3C48D0ED000AF1EE600A04
:1049100030EE200A374880ED040A90ED040AD0ED0D
:10492000000A20EE200A3548D0ED000A324890ED0A
:10493000001A70EEC10A2F4890ED021A00EE810AAB
:104940002F48D0ED000A78EE600A2A4890ED031A4D
:1049500000EE810A80ED060AD0ED060A294890EDA6
:10496000000AB8EEC00AF4EEC00AF1EE10FA04DD57
:1049700090ED000AB8EEC00A02E01E4890ED060A6B
:104980001C4880ED060AD0ED060A1E480068404229
:1049900000EE100AB8EEC00AF4EEC00AF1EE10FA0A
:1049A00007D218480068404200EE100AB8EEC00A6C
:1049B00002E0104890ED060A0E4880ED060A104805
:1049C00080ED008A0C4890ED000A0C4880ED000A4A
:1049D0000848046290ED060AB1EE400ABDEEC00A36
:1049E00010EE100A00B2BDEC028B10BDD004002006
:1049F00000000000AC0400206C01002070010020C9
:104A000004030020D80200202DED020B019820F0B5
:104A1000004001909DED000B02B070472DE9F0437E
:104A200004460E461746616872687B68B4F80080D9
:104A3000B4F8029008FB09FC4FEA9C053BE091EDBD
:104A4000003AB0EE430A92ED003AB0EE431A91ED0F
:104A5000013AF0EE430A30EE013AB0EE432A92ED0D
:104A6000013AF0EE431A91ED023AB0EE430A30EE0D
:104A7000A13AF0EE432A92ED023AB0EE431A83EDEA
:104A8000002AC3ED012A91ED033AF0EE430A92EDBC
:104A9000033AF0EE431A30EE013AB0EE432A30EE1C
:104AA000A13AF0EE432A83ED022AC3ED032A103126
:104AB000103210336D1E002DC1D10CF0030508E03B
:104AC000B1EC013AF2EC013A33EE233AA3EC013AAD
:104AD0006D1E002DF4D10020BDE8F08301804280DE
:104AE000436070472DE9F34F88B08146D9F80480C0
:104AF0000998D0F804A0B9F800C0B9F802209FEDD9
:104B0000BC2AB0EE420A002003905646E64619E061
:104B1000ACEB0E0304E09FEDB62AA6EC012A5B1E67
:104B2000002BF8D1B7EE002AA6EC012AAEF1010362
:104B300004E09FEDAF2AA6EC012A5B1E002BF8D102
:104B4000AEF1010EBEF1000FE2D10292002424E189
:104B500004FB02F008EB800104FB02F00AEB800684
:104B600091ED002AB0EE420A9FEDA12AF0EE420A32
:104B7000274628E091ED002AB5EEC02AF1EE10FAA2
:104B80000CDD91ED002AB4EEE02AF1EE10FA02DD20
:104B900091ED002A12E0B0EE602A0FE091ED002ABC
:104BA000B1EE422AB4EEE02AF1EE10FA04DD91ED06
:104BB000002AB1EE422A01E0B0EE602AF0EE420A8D
:104BC00001EB82017F1C6745D4D3F5EEC00AF1EEFC
:104BD00010FA04D16FF004000AB0BDE8F08F41462E
:104BE00001200190B5EEC00AF1EE10FA02DDB0EE40
:104BF000402A01E0B1EE402AB4EE602AF1EE10FA4C
:104C00004CD0601CACEB000745E002FB04F001EB6C
:104C100080050198504306EB8000079095ED002A2F
:104C2000B5EEC02AF1EE10FA02DD95ED002A03E0A0
:104C300095ED002AB1EE422AB4EE602AF1EE10FAA8
:104C400025D1131B0AE095ED002AF0EE421A91EDF2
:104C5000002AA5EC012AE1EC011A5B1E002BF2D11F
:104C600013460FE0079890ED002AF0EE421A96EDF9
:104C7000002A079880ED002A0798001D0790E6ECAF
:104C8000011A5B1E002BEDD10120039005E0019875
:104C9000401C01907F1E002FB7D100BF0398012850
:104CA00007D0B5EEC00AF1EE10FA02D16FF00400A1
:104CB00092E704FB02F008EB800B04FB02F00AEB26
:104CC000800005905946059D9BED002AB0EE420AF2
:104CD000131B08E091ED002AB0EE421A81EE002A83
:104CE000A1EC012A5B1E002BF4D1134608E095EDE0
:104CF000002AB0EE421A81EE002AA5EC012A5B1EC2
:104D0000002BF4D1414655460027CDF804C03BE0C6
:104D1000A74205D1101B01EB800105EB82052DE0B8
:104D200091ED002AB0EE420ACDF818B00598049033
:104D3000131B0EE091ED002AB0EE421A0698F0EC3B
:104D4000012AB0EE412A00EE622A0690A1EC012A67
:104D50005B1E002BEED113460EE095ED002AB0EE5F
:104D6000421A0498F0EC012AB0EE412A00EE622AC1
:104D70000490A5EC012A5B1E002BEED101EB84010F
:104D80000198401E01907F1C01980028C0D108F1B5
:104D900004080298401E0290641C029800287FF4C8
:104DA000D7AE0090039801281FD0B5EEC00AF1EEEF
:104DB00010FA1AD1D9F8048000270AE008EB87001E
:104DC00090ED002AB5EEC02AF1EE10FA00D004E012
:104DD0007F1C0CFB02F0B842F0D800BF0CFB02F0C5
:104DE000B84202D16FF0040000900098F4E6000091
:104DF000000000002DE9F74F83B004460D466268BD
:104E00006968D4F804C00598406802902088019031
:104E10006B8867884FF0000ADDF804E000BF029855
:104E200000EB8A08994669684FF0000B00BFDFED80
:104E3000412AB0EE620A6246BE1042E0D1ED002A7D
:104E4000F0EE621A01EB8301D2ED002AF0EE620A65
:104E5000D2ED012AB0EE621AF0EE402A40EEA12A0D
:104E6000B0EE620AD1ED002AB0EE622A01EB8301B6
:104E7000F0EE402A41EE022AB0EE620AD1ED002A9D
:104E8000F0EE621A01EB8301D2ED022AF0EE620A23
:104E9000D2ED032AB0EE621AF0EE402A40EEA12ACB
:104EA000B0EE620AD1ED002AB0EE622A01EB830176
:104EB000F0EE402A41EE022AB0EE620A1032701E75
:104EC00086B2002EBAD107F003060DE0B2EC013A2B
:104ED000D1ED003AF0EE402A43EE232AB0EE620A0A
:104EE00001EB8301701E86B2002EEFD1A8EC010AFF
:104EF0000BF101001FFA80FB686800EB8B01A9F140
:104F000001001FFA80F9B9F1000F90D10AEB0300FC
:104F10001FFA80FA0CEB870CAEF101001FFA80FE3D
:104F2000BEF1000F7FF47BAF00200090009806B028
:104F3000BDE8F08F000000002DE9F04304460E4666
:104F40001746616872687B68B4F80080B4F8029014
:104F500008FB09FC4FEA9C053BE091ED003AB0EEFE
:104F6000430A92ED003AB0EE431A91ED013AF0EEA9
:104F7000430A30EE413AB0EE432A92ED013AF0EEA8
:104F8000431A91ED023AB0EE430A30EEE13AF0EE08
:104F9000432A92ED023AB0EE431A83ED002AC3EDA4
:104FA000012A91ED033AF0EE430A92ED033AF0EE56
:104FB000431A30EE413AB0EE432A30EEE13AF0EED9
:104FC000432A83ED022AC3ED032A10311032103335
:104FD0006D1E002DC1D10CF0030508E0B1EC013AC3
:104FE000F2EC013A33EE633AA3EC013A6D1E002D68
:104FF000F4D10020BDE8F0832DE9F04704460E46C9
:105000006168D6F80490238867884FF0000C9846B2
:1050100000BFBD1009EB8C021BE0B1EC010A82ED70
:10502000000A02EB8302B1EC010A82ED000A02EBF6
:105030008302B1EC010A82ED000A02EB8302B1ECBB
:10504000010A82ED000A02EB8302A5F1010A1FFAB0
:105050008AF5002DE1D107F0030509E0B1EC010A62
:1050600082ED000A02EB8302A5F1010A1FFA8AF51C
:10507000002DF3D10CF1010A1FFA8AFCA8F1010AF4
:105080001FFA8AF8B8F1000FC3D10020BDE8F087FD
:10509000F0B503460C461888002113E0675C80EAEF
:1050A000072000250BE0460000F4004CBCF1000F87
:1050B00003D041F2210C86EA0C0630466D1C082D07
:1050C000F1D3491C9142E9D31880F0BD70B5044674
:1050D0000420FEF723FA0C48047025464FF47A703A
:1050E00045430120094908804FF0E020006940F065
:1050F00002004FF0E021086108464561006940F078
:105100000100086170BD0000D6000020D80000201A
:1051100000BFEFF3058008B1012070470020FCE7D5
:1051200010B52DED048B98B00446B0EE408AF0EE39
:10513000608AB0EE419AF0EE619A402108A8FBF730
:105140008EF90020049005900690079008AB042289
:10515000114602A8FFF7C2FC04AB012204216846F5
:10516000FFF7BCFCA06A80ED008AA06AC0ED018A4E
:10517000A06A80ED029AA06AC0ED039A04F11C02B5
:1051800004F1140104F12C00FFF734FE04F1640271
:1051900004F15C0104F12C00FFF72CFE02AA04F1DB
:1051A0003C0104F16400FFF725FE04F1640204F100
:1051B0004C0102A8FFF732FC04F16C0204F1640117
:1051C00004F13400FFF716FE02AA04F1440104F1D1
:1051D0006C00FFF70FFE04F16C0204F1540102A809
:1051E000FFF71CFC04F15C0104F16C00FFF77AFC92
:1051F00000EE100AB8EEC00A3F4880ED040A02AA89
:1052000004F1440104F16400FFF7F4FD00EE100A1C
:10521000B8EEC00A384880ED020A04F16C0204F1CD
:105220005C0102A8FFF7E6FD00EE100AB8EEC00A26
:10523000314880ED050A6A4604F11C0104F134008E
:10524000FFF7D8FD04F11402694604F12400FFF7CA
:1052500073FE6A4604F1140104F16C00FFF7CAFD05
:1052600004F11402694604F11C00FFF7D7FB04F1B6
:105270005C0204F1340104F16C00FFF7BBFD00EEA9
:10528000100AB8EEC00A1C4880ED010A02AA04F117
:105290005C0104F14C00FFF74FFE00EE100AB8EE7F
:1052A000C00A154880ED000A04F15C0204F16401B3
:1052B00002A8FFF79FFD00EE100AB8EEC00A0E48E4
:1052C00080ED030AA06990ED000A84ED010AA0694F
:1052D00090ED010A84ED020AA06990ED020A84EDC6
:1052E000030AA06990ED030A84ED040A201D18B09A
:1052F000BDEC048B10BD0000B402002070B5044664
:105300000D4605F114030122042104F11400FFF7F6
:10531000E5FB05F124030122042104F11C00FFF741
:10532000DDFB05F5AA730422114604F12C00FFF7FA
:10533000D5FB05F582730422114604F13C00FFF70A
:10534000CDFB05F184030422114604F16C00FFF744
:10535000C5FB05F1C4030422114604F15C00FFF70C
:10536000BDFB05F144030422114604F16400FFF77C
:10537000B5FB05F5EA730422114604F14C00FFF772
:10538000ADFB05F505730422114604F15400FFF747
:10539000A5FB05F134030122042104F12400FFF7E9
:1053A0009DFB05F5CA730422114604F13400FFF792
:1053B00095FB05F58A730422114604F14400FFF7BA
:1053C0008DFB04F13C0104F12C00FFF715FE04F104
:1053D000440104F13400FFF70FFE70BD1FB5A82093
:1053E000FFF774FE00200323CDE90030029003464E
:1053F0004FF4C86204A10390084801F039FC00F0A2
:10540000FBFF00BFFEE700005461736B5F537973CD
:10541000496E6974436F6E66696700001D38000845
:105420003EB504460D46002002900190FFF770FE45
:10543000B8B102A801AB012229460090204601F034
:1054400051FD012802D04FF000403EBD029898B1B6
:105450004FF0805009490860BFF34F8FBFF36F8F43
:105460000AE001AB01222946204601F0B9FC0128DF
:1054700002D04FF00040E8E70198E6E704ED00E0D5
:1054800010B504460E48006844600E480068844227
:1054900007D20B480168091D0B48006800F076FC34
:1054A0000CE007480168091D0848006800F06EFC20
:1054B00007480068844201D20548046010BD00001E
:1054C000580300206C030020600300205C030020D0
:1054D000880300202DE9F04105460F461FB9A800BA
:1054E00000F0B0FB00E03846064656B15C2000F004
:1054F000A9FB04460CB1266304E0304600F0B4FC7E
:1055000000E0002424B1A900A522206BFAF79FFF38
:105510002046BDE8F081000010B500F05DFC1748A2
:10552000006840BB164800F021FC164800F01EFC45
:1055300013481549086013481449086000220C21DB
:105540000A2001F0A3F80D4908600846006850B928
:1055500000BF502080F31188BFF34F8FBFF36F8FD0
:1055600000BF00BFFEE70548006820B108A103485E
:10557000006800F0DFFC00F059FC10BD980300202B
:105580005419002068190020900300209403002083
:10559000546D72510000000070B523E000F070FF00
:1055A0001348006808B9012000E00020054601F01A
:1055B000A1FEBDB900F010FC0D48C068C468201DF4
:1055C00000F0C0FB0B480068401E0A4908600A480A
:1055D0000068401E0849086000F028FC204600F0E2
:1055E00062F800BF044800680028D7D170BD0000F1
:1055F0002C190020680300206403002070B50446C5
:105600000D46206C70B1216CE0680844E060616870
:10561000E068884201D32068E0602846226CE16897
:10562000FAF79EFE70BD2DE9F04104460E46154680
:105630000027206C40B9206878BB606801F0AAFDA3
:1056400007460020606028E07DB93146226CA068E2
:10565000FAF786FE216CA0680844A060D4E9011026
:1056600088421AD32068A06017E03146226CE068B7
:10567000FAF776FE216CE068401AE0602168E06885
:10568000884203D2216C6068401AE060022D04D188
:10569000A06B10B1A06B401EA063A06B401CA06368
:1056A0003846BDE8F08110B50446206B00F0DCFB05
:1056B000204600F0D9FB10BD0146084A1268126866
:1056C0000AB9012200E000220A600A6822B9034AEE
:1056D0001268D268106800E0002070479003002034
:1056E0000A4A22F007000A4A10600022084B5A605A
:1056F00046F2F832074B5A6000221A60014646F221
:10570000F8324A601A460A6070470000C419002047
:10571000A0030020A803002000BFFFF73DFF0648BC
:1057200000680128F9D94FF0805004490860BFF3A0
:105730004F8FBFF36F8FF0E76418002004ED00E097
:105740002DE9F04704460F4615469946DDF82080BE
:10575000002607E0B95D04F134008155B85D00B959
:1057600002E0761C102EF5D300BF00214320015526
:10577000072D00D30625E562E56400202065201D85
:1057800000F001FB04F1180000F0FDFA2461C5F1FE
:105790000700A06164620020606584F85800BDE8DD
:1057A000F087000010B5002407E004EB84010F4AE5
:1057B00002EB810000F0DAFA641C072CF5D30C48E8
:1057C00000F0D4FA0B4800F0D1FA0B4800F0CEFA02
:1057D0000A4800F0CBFA0A4800F0C8FA0448094920
:1057E000086004480849086010BD000064180020E3
:1057F000F018002004190020181900202C1900208E
:10580000401900205C030020600300202DE9F041D6
:1058100004460D4616461F464FF000086560246199
:10582000B5420CD8F01BA169884202D34FF00108A1
:1058300011E0211D0948006800F0A8FA0BE0BE4203
:1058400004D2BD4202D34FF0010804E0211D0448F8
:10585000006800F09BFA4046BDE8F0819403002008
:105860009003002070B5054600F0B6FAA86B08B9A1
:10587000012400E0002400F0D9FA204670BD70B584
:10588000054600F0A9FAA86BE96B884201D1012412
:1058900000E0002400F0CAFA204670BDF8B50546C5
:1058A0000F4616480068C068C468201D00F04AFA18
:1058B000E06901281ED1A06941192B463A462046CD
:1058C000FFF7A4FF012815D1002003462A46014610
:1058D0000090204601F0BCFD064656B900BF50209E
:1058E00080F31188BFF34F8FBFF36F8F00BF00BFEE
:1058F000FEE700BF2046616A8847F8BD900300209C
:1059000070B586B06BE00398002868DB059C606981
:1059100008B9012000E0002010B9201D00F012FAA3
:1059200002A800F0BDF8054603980A2855D2DFE822
:1059300000F00905073234500608333500BF00BFB8
:1059400000BF00BF0498A269811803462A4620467A
:10595000FFF75CFF01281DD12046616A8847E06996
:10596000012817D1002000900498A1694218002353
:105970001946204601F06CFD064656B900BF50207E
:1059800080F31188BFF34F8FBFF36F8F00BF00BF4D
:10599000FEE700BF22E000BF20E000BF0498A06146
:1059A000A06908B1012000E0002050B900BF5020DC
:1059B00080F31188BFF34F8FBFF36F8F00BF00BF1D
:1059C000FEE7A06941192B462A462046FFF71EFF35
:1059D00004E0204600F048FA00E000BF00BF0023CA
:1059E0001A4603A90348006800F094FE00288AD1F3
:1059F00006B070BD98030020F8B505460C4600F0CF
:105A00003FFD684600F04CF80646009820BB44B9BC
:105A1000B54206D801F06EFC31462846FFF73EFF3E
:105A20001CE03CB10E480068006808B9012000E0A5
:105A300000200446A91B22460A48006800F090FA9C
:105A400001F058FC50B94FF0805007490860BFF38F
:105A50004F8FBFF36F8F01E001F04CFCF8BD0000E9
:105A6000940300209803002004ED00E00A4909682F
:105A7000096809B9012100E0002121B14FF0FF318F
:105A8000064A116006E004490968C968C868034A03
:105A900041681160704700005C030020880300200B
:105AA00070B5044601F0CAFA054607480068854209
:105AB00004D200F00BF80120206001E000202060FB
:105AC00001480560284670BD9C0300202DE9F8437D
:105AD00032E024480068C068056822480068C06851
